:020000020000FC
:100000000F931F9307E610E00093C4001093C50000
:1000100008E10093C10006E00093C2001F910F9118
:10002000259A249A239A519A549A50982D982C984C
:100030002B9800E080E05C9A0091C00007FF03C0AD
:100040000091C60001C000E0013499F0023469F06B
:100050000334C9F0043489F00834A9F0093469F094
:100060000A3439F00B3409F062C02D9890E00C94FA
:1000700097002D9A91E00C9497002B98A0E0B1E0A6
:1000800080E00C946D002B9A81E0B0E0A1E00C942C
:100090006D00C1E0F2E02C9A2F938F939F9322E39F
:1000A0008EE39CE90197F1F72A95D1F700009F9123
:1000B0008F912F912C982F938F939F9322E38EE310
:1000C0009CE90197F1F72A95D1F700009F918F9154
:1000D0002F91FA9504F70C949700BC1741F18030EA
:1000E000C1F2813011F00C941C00C0E0F3E02C9AB6
:1000F0002F938F939F9322E38EE39CE90197F1F76F
:100100002A95D1F700009F918F912F912C982F93D2
:100110008F939F9322E38EE39CE90197F1F72A9551
:10012000D1F700009F918F912F91FA9504F7FF92DC
:100130000F931F932F933F93CF93DF93EF93092F49
:10014000302F0F930091C00005FFFCCF0F91C0E04E
:10015000D0E0E0E01AE02F93FF1829E0001F2A9575
:1001600009F408C0FF1CF11A18F4F10E8894F6CFB8
:100170000894F4CF2F91CF2D1AE02F93FF1829E088
:10018000001F2A9509F408C0FF1CF11A18F4F10E9B
:100190008894F6CF0894F4CF2F91DF2D1AE02F9397
:1001A000FF1829E0001F2A9509F408C0FF1CF11A66
:1001B00018F4F10E8894F6CF0894F4CF2F91EF2D18
:1001C00020E010E3203029F0213041F0223059F0B6
:1001D0001DC03436C8F0E10F0E2F08C03A30A0F031
:1001E000D10F0D2F03C0C10F0C2F00C00F93009132
:1001F000C00005FFFCCF0F910093C6000F93009144
:10020000C00005FFFCCF0F912395DCCFEF91DF916C
:10021000CF913F912F911F910F91FF900F930091DC
:10022000C00005FFFCCF0DE20093C6000F91FF92C6
:100230000F931F932F933F93CF93DF93EF930A2F47
:10024000302F0F930091C00005FFFCCF0F91C0E04D
:10025000D0E0E0E01AE02F93FF1829E0001F2A9574
:1002600009F408C0FF1CF11A18F4F10E8894F6CFB7
:100270000894F4CF2F91CF2D1AE02F93FF1829E087
:10028000001F2A9509F408C0FF1CF11A18F4F10E9A
:100290008894F6CF0894F4CF2F91DF2D1AE02F9396
:1002A000FF1829E0001F2A9509F408C0FF1CF11A65
:1002B00018F4F10E8894F6CF0894F4CF2F91EF2D17
:1002C00020E010E3203029F0213041F0223059F0B5
:1002D0001DC03436C8F0E10F0E2F08C03A30A0F030
:1002E000D10F0D2F03C0C10F0C2F00C00F93009131
:1002F000C00005FFFCCF0F910093C6000F93009143
:10030000C00005FFFCCF0F912395DCCFEF91DF916B
:10031000CF913F912F911F910F91FF900F930091DB
:10032000C00005FFFCCF0DE00093C6000091C000A7
:1003300005FFFCCF0AE00093C6000F912F938F9327
:100340009F932AE08EE39CE90197F1F72A95D1F774
:0A03500000009F918F912F916FCE56
:00000001FF
